{
  "contractName": "MajorCoin",
  "abi": [
    {
      "constant": true,
      "inputs": [],
      "name": "totalsupply",
      "outputs": [
        {
          "name": "",
          "type": "uint256"
        }
      ],
      "payable": false,
      "stateMutability": "view",
      "type": "function"
    },
    {
      "inputs": [],
      "payable": false,
      "stateMutability": "nonpayable",
      "type": "constructor"
    }
  ],
  "bytecode": "0x608060405234801561001057600080fd5b50620f4240600081905550609e806100296000396000f300608060405260043610603f576000357c0100000000000000000000000000000000000000000000000000000000900463ffffffff16806372dd529b146044575b600080fd5b348015604f57600080fd5b506056606c565b6040518082815260200191505060405180910390f35b600054815600a165627a7a723058208852408d33eff084fc0e3d4be1e0b45b83836ce3af56198a3a653391c8c5abc40029",
  "source": "pragma solidity ^0.4.2;\n\ncontract MajorCoin{\n\n  uint256 public totalsupply;\n\n  constructor() public{\n    totalsupply = 1000000;\n  }\n}\n",
  "sourcePath": "/home/ashwin/Desktop/Junomoneta/code/5/contracts/MajorCoin.sol",
  "compiler": {
    "name": "solc",
    "version": "0.4.24+commit.e67f0147.Emscripten.clang"
  },
  "schemaVersion": "2.0.0",
  "updatedAt": "2018-12-15T21:30:16.377Z"
}